:100000000C9463000C94780F0C94B00F0C948B003C
:100010000C948B000C948B000C948B000C948B0034
:100020000C948B000C948B000C948B000C948B0024
:100030000C948B000C948B000C948B000C948B0014
:100040000C94CD070C948B000C94BC270C940428C2
:100050000C948B000C948B000C948B000C948B00F4
:100060000C948B000C948B000000000024002700EF
:100070002A0000000000250028002B0000000000DE
:1000800023002600290004040404040404040202DA
:100090000202020203030303030301020408102007
:1000A0004080010204081020010204081020000012
:1000B0000007000201000003040600000000000029
:1000C0000000742C232E11241FBECFEFD8E0DEBF1A
:1000D000CDBF12E0A0E0B1E0E2EAF5E602C0059093
:1000E0000D92A03FB107D9F713E0A0EFB2E001C035
:1000F0001D92AF3AB107E1F710E0C6ECD0E004C0C2
:100100002297FE010E94EC2EC23CD107C9F70E9443
:10011000BA070C94CF320C940000EF92FF920F9329
:100120001F937B018C0120E030E040E05FE40E94FF
:10013000090487FD11C0C801B70120E030E040E0AC
:100140005FE40E9430020E94C9049B01AC01205070
:1001500030404040504806C0C801B7010E94C90461
:100160009B01AC01B901CA011F910F91FF90EF9063
:100170000895A0E0B0E0EFEBF0E00C94B72EFC01A6
:10018000EA018081823008F438C1DB019C91923011
:1001900008F430C1843059F4943009F02EC19181B3
:1001A00011968C911197981709F021C126C19430AE
:1001B00009F420C19230B1F4823009F01EC1CA01A5
:1001C000AF0128E0DA010D90AD01DC010D92CD0107
:1001D0002150C1F7DB0111968C91119791818923F0
:1001E00089830AC1823009F405C1C280D380DB0152
:1001F00012966D907C9013972481358146815781AA
:100200001496ED90FD900D911C911797C6018619DB
:1002100097095C0197FF04C0AA24BB24A81AB90A55
:10022000B0E2AB16B1040CF061C0181619066CF5FB
:10023000370148010A2C04C09694879477946794F8
:100240000A94D2F781E090E0A0E0B0E00A2C04C06C
:10025000880F991FAA1FBB1F0A94D2F70197A10903
:10026000B1098E219F21A023B123EE24FF24870111
:10027000E3940097A105B10519F4EE24FF2487014A
:10028000E628F728082919293CC00097D1F1CA0CA3
:10029000DB1C39014A010A2C04C096948794779498
:1002A00067940A94D2F781E090E0A0E0B0E00A2CD5
:1002B00004C0880F991FAA1FBB1F0A94D2F7019789
:1002C000A109B10982239323A423B52321E030E0BF
:1002D00040E050E00097A105B10519F420E030E0BE
:1002E000A90126293729482959290BC06C147D04F6
:1002F00024F4EE24FF24870104C0630120E030E0F1
:10030000A9018181FB019181891709F445C08823E6
:1003100049F0D801C701821B930BA40BB50B9C01BC
:10032000AD0104C02E193F09400B510B57FD04C00D
:100330001982DB82CA820BC081E08983DB82CA8298
:1003400050954095309521953F4F4F4F5F4F2C83EF
:100350003D834E835F830DC0880F991FAA1FBB1F6B
:100360008C839D83AE83BF838A819B8101979B830E
:100370008A838C819D81AE81BF819C01AD0121501A
:100380003040404050402F3FEFEF3E07EFEF4E0729
:10039000EFE35E0708F30BC08983DB82CA822E0D70
:1003A0003F1D401F511F2C833D834E835F8383E09D
:1003B00088832C813D814E815F8157FF1DC0DA010A
:1003C000C90181709070A070B070569547953795AF
:1003D0002795822B932BA42BB52B8C839D83AE83E7
:1003E000BF838A819B8101969B838A8305C0E3E05A
:1003F000F1E003C0FB0101C0FE01CF01CDB7DEB7C4
:10040000EEE00C94D32EA0E2B0E0E9E0F2E00C9430
:10041000BF2E69837A838B839C832D833E834F8396
:10042000588789E0E82EF12CEC0EFD1ECE010196D6
:10043000B7010E94BB068E010F5E1F4FCE010596CD
:10044000B8010E94BB06C701B801AE01475E5F4F0D
:100450000E94B9000E94ED05A096E6E00C94DB2E08
:10046000A0E2B0E0E6E3F2E00C94BF2E69837A8369
:100470008B839C832D833E834F8358878E01075F38
:100480001F4FCE010196B8010E94BB0691E1E92EF3
:10049000F12CEC0EFD1ECE010596B7010E94BB06A5
:1004A0008A8991E089278A8BC801B701AE01475E2E
:1004B0005F4F0E94B9000E94ED05A096E6E00C9403
:1004C000DB2EA0E2B0E0E7E6F2E00C94B32E698305
:1004D0007A838B839C832D833E834F835887CE0101
:1004E0000196BE01675F7F4F0E94BB06CE01059655
:1004F000BE016F5E7F4F0E94BB069985923078F0F7
:1005000089898230C0F0943019F4823041F4CBC034
:10051000843019F4923079F4C6C0923051F481E0FD
:100520002A859A89291709F480E08A87CE010996DD
:10053000BCC0823051F481E02A859A89291709F4D8
:1005400080E08A8BCE014196B0C06D847E848F841A
:100550009888ED88FE880F89188DE0E2F0E080E051
:1005600090E0DC01AA24BB24650120E030E0A90171
:10057000B3016170707061157105D1F02E0D3F1DD2
:10058000401F511F15012601280E391E4A1E5B1EF1
:1005900081E090E0A0E0B0E02E153F054007510754
:1005A00018F080E090E0DC01820D931DA41DB51DC4
:1005B000AA0CBB1CCC1CDD1C17FF09C061E0262E59
:1005C000312C412C512CA228B328C428D52831978E
:1005D00049F0EE0CFF1C001F111F9694879477942E
:1005E0006794C6CF6B897C89EB85FC856E0F7F1F76
:1005F0006E5F7F4F7C8F6B8F61E0EA857A89E717AA
:1006000009F460E06A8F6B8D7C8D10C0FC01E17095
:10061000F070309729F05695479537952795506893
:10062000B695A795979587956F5F7F4FB7FDEECFEE
:100630000CC0880F991FAA1FBB1F57FD8160220F96
:10064000331F441F551F615070408030E0E09E070B
:10065000E0E0AE07E0E4BE0760F36B8F7C8F6FE7EE
:10066000E62EF12C012D112DE822F9220A231B235D
:1006700060E4E616F1040105110561F487FD0AC086
:10068000211531054105510529F0805C9F4FAF4F81
:10069000BF4F80788D8F9E8FAF8FB8A383E0898FF7
:1006A000CE01499602C083E091E00E94ED05A0963C
:1006B000E2E10C94CF2EA8E1B0E0E1E6F3E00C9487
:1006C000BB2E69837A838B839C832D833E834F83E8
:1006D00058878E01075F1F4FCE010196B8010E9417
:1006E000BB0681E1E82EF12CEC0EFD1ECE01059635
:1006F000B7010E94BB069985923008F483C08989AE
:10070000823008F47BC02A853A8923272A879430CF
:1007100011F0923021F4981709F06CC071C0843048
:1007200039F41D861E861F86188A1C861B866AC0A1
:10073000823019F484E0898765C08B859C852B897C
:100740003C89821B930B9C878B872D853E854F852B
:100750005889ED88FE880F89188D2E153F054007B2
:10076000510738F4220F331F441F551F01979C87F0
:100770008B876FE170E0A12CB12CC12CA0E4DA2EA4
:1007800080E090E0DC012E153F054007510740F066
:100790008A299B29AC29BD292E193F09400B510BF1
:1007A000D694C794B794A794220F331F441F551FA4
:1007B0006150704041F76FE7E62EF12C012D112DAD
:1007C000E822F9220A231B2360E4E616F10401055E
:1007D000110561F487FD0AC0211531054105510558
:1007E00029F0805C9F4FAF4FBF4F80788D879E87E9
:1007F000AF87B88B8E01075F1F4F04C0870102C00F
:1008000003E011E0C8010E94ED056896EAE00C944F
:10081000D72EA8E1B0E0EFE0F4E00C94BF2E69839E
:100820007A838B839C832D833E834F8358878E01ED
:10083000075F1F4FCE010196B8010E94BB0681E100
:10084000E82EF12CEC0EFD1ECE010596B7010E949C
:10085000BB068985823040F08989823028F0C80142
:10086000B7010E94240701C08FEF6896E6E00C9460
:10087000DB2EA8E1B0E0EFE3F4E00C94BF2E698337
:100880007A838B839C832D833E834F8358878E018D
:10089000075F1F4FCE010196B8010E94BB0681E1A0
:1008A000E82EF12CEC0EFD1ECE010596B7010E943C
:1008B000BB068985823040F08989823028F0C801E2
:1008C000B7010E94240701C081E06896E6E00C941D
:1008D000DB2EA8E0B0E0EFE6F4E00C94BF2E7B0145
:1008E0008C0183E08983D801C7018827B7FD8395F0
:1008F0009927AA27BB27282F8A83E114F104010531
:10090000110519F482E0898337C08EE190E09C8361
:100910008B83222389F080E0E81680E0F80680E0EF
:10092000080780E8180769F110950095F094E094A5
:10093000E11CF11C011D111DED82FE820F83188741
:10094000C801B7010E9493059C0121503040121646
:10095000130694F4022E04C0EE0CFF1C001F111F9E
:100960000A94D2F7ED82FE820F8318878EE190E021
:10097000821B930B9C838B83CE0101960E94ED0515
:1009800004C060E070E080E09FEC2896E6E00C9404
:10099000DB2EACE0B0E0EFECF4E00C94C32E698306
:1009A0007A838B839C83CE010196BE016B5F7F4F60
:1009B0000E94BB068D81823081F1823070F18430DB
:1009C00021F48E81882369F10AC02F81388537FD93
:1009D00024C06E812F3131053CF0662311F120E0F7
:1009E00030E040E050E821C08EE190E0821B930BA4
:1009F00029853A854B855C8504C056954795379582
:100A000027958A95D2F7662381F0509540953095C9
:100A100021953F4F4F4F5F4F08C020E030E0A901C4
:100A200004C02FEF3FEF4FEF5FE7B901CA012C96EB
:100A3000E2E00C94DF2EA8E0B0E0E1E2F5E00C94F7
:100A4000BD2E7B018C011A8261157105810591050E
:100A500019F482E089835FC083E089838EE1C82E28
:100A6000D12CDC82CB82ED82FE820F831887C801F5
:100A7000B7010E949305FC013197F7FF3AC0AA27FE
:100A8000BB27AE1BBF0B21E030E040E050E00A2E58
:100A900004C0220F331F441F551F0A94D2F7215060
:100AA0003040404050402E213F214023512361E0FF
:100AB00070E080E090E0211531054105510519F401
:100AC00060E070E0CB0104C016950795F794E794B9
:100AD000AA95D2F7E62AF72A082B192BED82FE8277
:100AE0000F8318878EE190E08E1B9F0B9C838B8376
:100AF00012C0309781F00E2E04C0EE0CFF1C001FB8
:100B0000111F0A94D2F7ED82FE820F831887CE1A46
:100B1000DF0ADC82CB82CE0101960E94ED05289689
:100B2000E8E00C94D92EAF92BF92CF92DF92EF9271
:100B3000FF920F931F937B018C0180E0E81680E009
:100B4000F80681E0080780E0180758F4EFEFEE168A
:100B5000F1040105110509F090F480E090E0DC015A
:100B600017C0F0E0EF16F0E0FF06F0E00F07F1E04D
:100B70001F0750F480E190E0A0E0B0E009C088E0F9
:100B800090E0A0E0B0E004C088E190E0A0E0B0E038
:100B900020E230E040E050E0281B390B4A0B5B0BB1
:100BA0005701680104C0D694C794B794A7948A9556
:100BB000D2F7D601C501855F9E4FFC018081281BBD
:100BC000310941095109C9011F910F91FF90EF901F
:100BD000DF90CF90BF90AF900895EF92FF920F9368
:100BE0001F93CF93DF93FC01248135814681578188
:100BF00061818081823020F44061EFEFF0E0A3C09A
:100C0000843009F49BC0823009F492C0211531056B
:100C10004105510509F48FC00280F381E02D8FEF6B
:100C2000E238F8070CF05AC0C2E8DFEFCE1BDF0B4A
:100C3000CA31D1056CF579018A010C2E04C01695D4
:100C40000795F794E7940A94D2F781E090E0A0E04A
:100C5000B0E00C2E04C0880F991FAA1FBB1F0A9476
:100C6000D2F70197A109B10982239323A423B523C5
:100C700021E030E040E050E00097A105B10519F413
:100C800020E030E0A9012E293F29402B512B03C041
:100C900020E030E0A901DA01C9018F779070A070DF
:100CA000B07080349105A105B10539F427FF09C062
:100CB000205C3F4F4F4F5F4F04C0215C3F4F4F4F71
:100CC0005F4FE1E0F0E0203080E0380780E0480747
:100CD00080E4580728F5E0E0F0E022C0E038F105B4
:100CE0006CF5E158FF4FDA01C9018F779070A07061
:100CF000B07080349105A105B10539F427FF09C012
:100D0000205C3F4F4F4F5F4F04C0215C3F4F4F4F20
:100D10005F4F57FF05C056954795379527953196F4
:100D200087E056954795379527958A95D1F70BC05B
:100D3000E0E0F0E005C0E0E0F0E005C0EFEFF0E05B
:100D400020E030E0A9018E2F879588278795942F82
:100D50009F77679566276795E695E22EA92FA82BC2
:100D6000FE2FF62B622F732F8A2F9F2FCDB7DEB762
:100D7000E6E00C94DB2EDC01FB012C9111963C91FA
:100D8000119712968C911297482F4F7750E0982F19
:100D9000991F9927991F13966C911397862F880F87
:100DA000892B90E0661F6627661F6183009739F5DF
:100DB000211531054105510511F482E029C082E871
:100DC0009FEF9383828367E0220F331F441F551FD9
:100DD0006A95D1F783E0808309C0220F331F441F37
:100DE000551F82819381019793838283203080E015
:100DF000380780E0480780E4580778F320C08F3F29
:100E0000910579F4211531054105510519F484E066
:100E10008083089544FF03C081E0808310C0108266
:100E20000EC08F5790409383828383E0808387E056
:100E3000220F331F441F551F8A95D1F75064248316
:100E40003583468357830895FC01DB0190819230FE
:100E500008F449C08C91823008F445C0943051F4B4
:100E600061818430B1F511962C91119730E0261BE9
:100E7000310941C0843021F0923041F48230B1F127
:100E800011968C9111978823A1F12DC06181823038
:100E900001F111968C9111976817D9F42281338151
:100EA00012968D919C9113978217930794F02817AF
:100EB0003907BCF0248135814681578114968D9184
:100EC0009D910D90BC91A02D82179307A407B507A3
:100ED00018F4662341F00DC0281739074A075B074D
:100EE00028F4662331F021E030E005C020E030E056
:100EF00002C02FEF3FEFC9010895DF93CF93CDB725
:100F0000DEB78DE061E00E94F20A86E893E040E8F7
:100F100055E260E070E00E94EE28CF91DF910895E5
:100F2000DF93CF9300D0CDB7DEB71A82198286E85F
:100F300093E00E94AB2A21E0181619060CF020E07D
:100F4000222339F086E893E00E94132B8A8381E004
:100F500089838981813021F48DE061E00E94DB0B7F
:100F60000F900F90CF91DF910895DF93CF93CDB77E
:100F7000DEB7FFCFDF93CF93CDB7DEB70E94440932
:100F80000E947D0701C000000E94900781EF97E258
:100F90000097C9F30E94F127F7CF1F920F920FB667
:100FA0000F9211248F939F93AF93BF93DF93CF93AF
:100FB000CDB7DEB72597DEBFCDBF8091F40290910B
:100FC000F502A091F602B091F70289839A83AB8370
:100FD000BC838091F8028D8389819A81AB81BC8129
:100FE0000196A11DB11D89839A83AB83BC838D813A
:100FF0008D5F8D838D818D3770F08D818D578D83C1
:1010000089819A81AB81BC810196A11DB11D898323
:101010009A83AB83BC838D818093F80289819A8106
:10102000AB81BC818093F4029093F502A093F60209
:10103000B093F7028091F0029091F102A091F20238
:10104000B091F3020196A11DB11D8093F00290931F
:10105000F102A093F202B093F3022596DEBFCDBF5A
:10106000CF91DF91BF91AF919F918F910F900FBE64
:101070000F901F901895DF93CF9300D000D00F9260
:10108000CDB7DEB78FE590E0FC0180818983F894CD
:101090008091F4029091F502A091F602B091F702CE
:1010A0008A839B83AC83BD838FE590E02981FC011B
:1010B00020838A819B81AC81BD81BC01CD010F90D1
:1010C0000F900F900F900F90CF91DF910895DF93C5
:1010D000CF9300D000D000D0CDB7DEB78FE590E041
:1010E000FC0180818D83F8948091F0029091F1024F
:1010F000A091F202B091F30289839A83AB83BC83FF
:1011000086E490E0FC0180818E8385E390E0FC0121
:101110008081882F90E081709070882329F08E81E3
:101120008F3F11F081E001C080E0882359F0898170
:101130009A81AB81BC810196A11DB11D89839A83DF
:10114000AB83BC838FE590E02D81FC0120838981F6
:101150009A81AB81BC812227382F492F5A2F8E814B
:10116000882F90E0A0E0B0E0820F931FA41FB51F6E
:10117000880F991FAA1FBB1F880F991FAA1FBB1F8B
:10118000BC01CD0126960FB6F894DEBF0FBECDBFD1
:10119000CF91DF910895DF93CF9300D000D000D09E
:1011A000CDB7DEB76B837C838D839E830E946708F7
:1011B000DC01CB019A83898324C00E946708DC018B
:1011C000CB019C0189819A81A901481B590BCA0155
:1011D00021E053E0883E950708F420E0222389F0BF
:1011E0008B819C81AD81BE810197A109B1098B835F
:1011F0009C83AD83BE8389819A8188519C4F9A8359
:10120000898321E08B819C81AD81BE810097A105FE
:10121000B10509F420E0222381F626960FB6F89452
:10122000DEBF0FBECDBFCF91DF910895DF93CF9387
:1012300000D0CDB7DEB79A83898389819A810197DF
:101240009A83898321E089819A81009709F020E0BF
:101250002223A1F489819A81880F991F880F991FF1
:101260009A83898389819A8102979A838983898164
:101270009A810197F1F79A83898301C000000F904A
:101280000F90CF91DF910895DF93CF93CDB7DEB765
:10129000789484E490E024E430E0F9012081226035
:1012A000FC01208384E490E024E430E0F901208113
:1012B0002160FC01208385E490E025E430E0F90121
:1012C00020812260FC01208385E490E025E430E069
:1012D000F90120812160FC0120838EE690E02EE65A
:1012E00030E0F90120812160FC01208381E890E059
:1012F000FC01108281E890E021E830E0F9012081D2
:101300002260FC01208381E890E021E830E0F901CF
:1013100020812160FC01208380E890E020E830E01B
:10132000F90120812160FC01208381EB90E021EB19
:1013300030E0F90120812460FC01208380EB90E003
:1013400020EB30E0F90120812160FC0120838AE755
:1013500090E02AE730E0F90120812460FC0120833D
:101360008AE790E02AE730E0F90120812260FC0161
:1013700020838AE790E02AE730E0F90120812160AC
:10138000FC0120838AE790E02AE730E0F901208120
:101390002068FC01208381EC90E0FC011082CF9159
:1013A000DF910895DF93CF930F92CDB7DEB7898396
:1013B0008981809315020F90CF91DF910895DF937B
:1013C000CF9300D00F92CDB7DEB78B838B818E3059
:1013D00018F08B818E508B838CE790E02091150262
:1013E000222F30E0002436952795079436952795CF
:1013F0000794322F202D322F2B812770232BFC01B5
:1014000020838AE790E02AE730E0F9012081206418
:10141000FC0120838AE790E0FC018081882F90E026
:101420008074907021E0009709F420E0222391F766
:1014300088E790E0FC018081898389E790E0FC01E6
:1014400080818A838A81882F90E0382F22278981A2
:10145000882F90E0822B932B0F900F900F90CF91BD
:10146000DF9108951F93DF93CF9300D000D000D079
:10147000CDB7DEB78C837E836D838C8161E00E9463
:10148000F20A8D819E81009729F48C8160E00E9490
:10149000DB0B9EC08D819E818F3F910529F48C814D
:1014A00061E00E94DB0B94C08C81882F90E0825514
:1014B0009F4F9A83898389819A81FC0114911B83B0
:1014C0008B81882F90E083309105A1F184309105C4
:1014D0003CF48130910581F082309105E1F06AC0E1
:1014E0008630910509F448C08730910509F453C04E
:1014F0008430910581F15EC084E490E024E430E022
:10150000F90120812068FC01208387E490E02D818F
:10151000FC0120835DC084E490E024E430E0F90124
:1015200020812062FC01208388E490E02D81FC0171
:1015300020834EC080E890E020E830E0F90120816F
:101540002068FC01208388E890E02D813E81FC0129
:10155000318320833DC080E890E020E830E0F9014D
:1015600020812062FC0120838AE890E02D813E8169
:10157000FC01318320832CC080EB90E020EB30E035
:10158000F90120812068FC01208383EB90E02D810C
:10159000FC0120831DC080EB90E020EB30E0F901DE
:1015A00020812062FC01208384EB90E02D81FC01EE
:1015B00020830EC08D819E81803891052CF48C8112
:1015C00060E00E94DB0B04C08C8161E00E94DB0BB9
:1015D00026960FB6F894DEBF0FBECDBFCF91DF9138
:1015E0001F910895EF92FF920F931F93DF93CF9374
:1015F000CDB7DEB762970FB6F894DEBF0FBECDBF92
:10160000898B6A8B8989882F90E086569F4F9A83B1
:10161000898389819A81FC0114911B838B818C833E
:101620008989882F90E08A579F4F9E838D838D8173
:101630009E81FC0114911F838F8188878885882370
:1016400009F44BC08885882F90E0880F991F88592E
:101650009F4F9A87898789859A858C01F801E59043
:10166000F4908F01FC86EB861A8709878B859C8511
:101670009E878D878A898823C9F48FE590E0FC01D5
:1016800080818F87F8948D859E85FC018081982FBD
:101690008C8180958923282F8D859E85FC01208350
:1016A0008FE590E02F85FC01208318C08FE590E046
:1016B000FC018081888BF8948D859E85FC0190814A
:1016C0008C81292F282B8D859E85FC0120838FE519
:1016D00090E02889FC01208301C0000062960FB6CB
:1016E000F894DEBF0FBECDBFCF91DF911F910F9158
:1016F000FF90EF900895DF93CF930F92CDB7DEB7B1
:1017000089838981882F90E083309105A1F084300E
:1017100091053CF48130910511F18230910549F138
:1017200046C08630910579F187309105B1F184305A
:10173000910559F03CC080E890E020E830E0F901E4
:1017400020812F77FC01208332C080E890E020E8E0
:1017500030E0F90120812F7DFC01208328C084E442
:1017600090E024E430E0F90120812F77FC01208310
:101770001EC084E490E024E430E0F90120812F7D54
:10178000FC01208314C080EB90E020EB30E0F901F5
:1017900020812F77FC0120830AC080EB90E020EBB2
:1017A00030E0F90120812F7DFC01208300000F90A3
:1017B000CF91DF910895EF92FF920F931F93DF93E4
:1017C000CF93CDB7DEB765970FB6F894DEBF0FBEE7
:1017D000CDBF8C8B6D8B8C89882F90E082559F4F6D
:1017E0009A83898389819A81FC0114911B838B815F
:1017F0008C838C89882F90E086569F4F9E838D83A3
:101800008D819E81FC0114911F838F8188878C8933
:10181000882F90E08A579F4F9A87898789859A8574
:10182000FC0114911B878B858C878C85882309F498
:1018300046C08C81882319F08C810E947B0B8C859B
:10184000882F90E0880F991F8E589F4F9E878D8715
:101850008D859E858C01F801E590F4908F01F88AC2
:10186000EF861E870D878F8598899A8B898B8FE5E8
:1018700090E0FC0180818B8BF8948D89882371F432
:1018800089899A89FC018081982F88858095892390
:10189000282F89899A89FC0120830BC089899A891C
:1018A000FC0190818885292F282B89899A89FC0140
:1018B00020838FE590E02B89FC01208301C000008C
:1018C00065960FB6F894DEBF0FBECDBFCF91DF9106
:1018D0001F910F91FF90EF900895EF92FF920F9359
:1018E0001F93DF93CF93CDB7DEB761970FB6F89410
:1018F000DEBF0FBECDBF898B8989882F90E08255CE
:101900009F4F9A83898389819A81FC0114911B835B
:101910008B818C838989882F90E086569F4F9E8388
:101920008D838D819E81FC0114911F838F81888717
:101930008989882F90E08A579F4F9A878987898560
:101940009A85FC0114911B878B858C878C85882355
:1019500019F480E090E02BC08C81882319F08C81F1
:101960000E947B0B8C85882F90E0880F991F8458EC
:101970009F4F9E878D878D859E858C01F801E59010
:10198000F4908F01F88AEF861E870D878F859889DE
:10199000FC0190818885982381E0992309F480E0F7
:1019A000882319F081E090E002C080E090E0619629
:1019B0000FB6F894DEBF0FBECDBFCF91DF911F9160
:1019C0000F91FF90EF900895EF92FF920F931F9366
:1019D000DF93CF93CDB7DEB7A7970FB6F894DEBFEE
:1019E0000FBECDBF8AA36BA32CA33DA34EA35FA3C1
:1019F0008AA1882F90E086569F4F9A87898789858C
:101A00009A85FC0114911B878B858C878AA1882F6E
:101A100090E08A579F4F9E878D878D859E85FC011C
:101A200014911F878F85888B8BA1882311F08C855B
:101A300001C080E0898B19821A821B821C821D8260
:101A40001E821F8218868CA19DA1AEA1BFA120E895
:101A50003EE340E050E0BC01CD010E94302EDC01AD
:101A6000CB0120E83EE340E050E0BC01CD010E9404
:101A7000622E2A8B3B8B4C8B5D8B20C061E02D81CD
:101A80003E814F8158858A899B89AC89BD892817F9
:101A900039074A075B0709F060E08D819E81AF81BD
:101AA000B8850196A11DB11D8D839E83AF83B88734
:101AB000662321F080E090E0DC01D2C08889882F85
:101AC00090E0880F991F84589F4F9F8B8E8B8E8933
:101AD0009F898C01F801E590F4908F01F98EE88ED2
:101AE0001F8B0E8B888D998DFC0190818C85292F01
:101AF000282381E09989291709F080E0882309F0DB
:101B0000BDCF20C061E02D813E814F8158858A89FB
:101B10009B89AC89BD89281739074A075B0709F0FB
:101B200060E08D819E81AF81B8850196A11DB11DB8
:101B30008D839E83AF83B887662321F080E090E099
:101B4000DC018EC08889882F90E0880F991F845807
:101B50009F4F9B8F8A8F8A8D9B8D8C01F801E5901A
:101B6000F4908F01FD8EEC8E1B8F0A8F8C8D9D8DD6
:101B7000FC0190818C85292F282381E099892917E0
:101B800009F480E0882309F0BDCF2BC061E02D81EE
:101B90003E814F8158858A899B89AC89BD892817E8
:101BA00039074A075B0709F060E08D819E81AF81AC
:101BB000B8850196A11DB11D8D839E83AF83B88723
:101BC000662321F080E090E0DC014AC089819A819F
:101BD000AB81BC810196A11DB11D89839A83AB8322
:101BE000BC838889882F90E0880F991F84589F4F65
:101BF0009F8F8E8F8E8D9F8D8C01F801E590F490D4
:101C00008F01F9A2E8A21F8F0E8F88A199A1FC0174
:101C100090818C85292F282381E09989291709F043
:101C200080E0882309F0B2CF89819A81AB81BC81A1
:101C300028E032E540E050E0BC01CD010E94302EAA
:101C4000DC01CB018058914CAF4FBF4F20E83EE301
:101C500040E050E0BC01CD010E94622EDA01C901D2
:101C6000BC01CD01A7960FB6F894DEBF0FBECDBF65
:101C7000CF91DF911F910F91FF90EF900895DF9327
:101C8000CF9300D000D00F92CDB7DEB78B836C839B
:101C90004D8319821A8234C08C8161E00E94DB0B73
:101CA0008D81882389F48B810E946D0C2A81222FDB
:101CB00030E0022E02C0880F991F0A94E2F7982F95
:101CC0008981892B898315C08B810E946D0C2A81A3
:101CD000222F30E047E050E0BA01621B730B9B01FA
:101CE00002C0880F991F2A95E2F7982F8981892BC6
:101CF00089838C8160E00E94DB0B8A818F5F8A83FD
:101D000081E09A81983008F080E0882329F6898163
:101D10000F900F900F900F900F90CF91DF9108953B
:101D2000DF93CF9300D000D00F92CDB7DEB78A8378
:101D30006B834C832D83198239C08C81882399F45D
:101D40008D81882F90E02981222F30E002C0959567
:101D500087952A95E2F781709070982F8A81692F74
:101D60000E94DB0B18C08D81882F90E02981222FE3
:101D700030E047E050E0BA01621B730B9B0102C0E8
:101D8000959587952A95E2F781709070982F8A81B2
:101D9000692F0E94DB0B8B8161E00E94DB0B8B8142
:101DA00060E00E94DB0B89818F5F898381E09981EC
:101DB000983008F080E0882309F0BFCF0F900F9093
:101DC0000F900F900F90CF91DF910895DF93CF93F5
:101DD00000D000D00F92CDB7DEB789837B836A83B2
:101DE0005D834C838981823008F046C08981882FC9
:101DF00090E0880F991F87509D4F2A813B81FC01FD
:101E0000318320838981882F90E0009721F08130F1
:101E10009105B9F031C089E690E029E630E0F9019A
:101E20002081322F3C7F2C81232BFC0120838DE3EA
:101E300090E02DE330E0F90120812160FC01208356
:101E40001BC089E690E029E630E0F9012081422FAD
:101E5000437F2C813D81220F331F220F331F242B00
:101E6000FC0120838DE390E02DE330E0F901208137
:101E70002260FC01208300000F900F900F900F90C4
:101E80000F90CF91DF910895DF93CF930F92CDB74D
:101E9000DEB789838981823038F58981882F90E087
:101EA000009721F08130910559F014C08DE390E046
:101EB0002DE330E0F90120812E7FFC0120830AC050
:101EC0008DE390E02DE330E0F90120812D7FFC01CE
:101ED000208300008981882F90E0880F991F875008
:101EE0009D4FFC01118210820F90CF91DF910895D8
:101EF0001F920F920FB60F9211242F933F934F937F
:101F00005F936F937F938F939F93AF93BF93EF9361
:101F1000FF93DF93CF93CDB7DEB78091F902909115
:101F2000FA0221E0009709F420E0222331F08091A9
:101F3000F9029091FA02FC010995CF91DF91FF918E
:101F4000EF91BF91AF919F918F917F916F915F9131
:101F50004F913F912F910F900FBE0F901F901895AA
:101F60001F920F920FB60F9211242F933F934F930E
:101F70005F936F937F938F939F93AF93BF93EF93F1
:101F8000FF93DF93CF93CDB7DEB78091FB029091A3
:101F9000FC0221E0009709F420E0222331F0809137
:101FA000FB029091FC02FC010995CF91DF91FF911A
:101FB000EF91BF91AF919F918F917F916F915F91C1
:101FC0004F913F912F910F900FBE0F901F9018953A
:101FD000DF93CF9300D0CDB7DEB79A838983898111
:101FE0009A81009749F089819A81CC01A0E0B0E004
:101FF000BC01CD010E946F300F900F90CF91DF9107
:102000000895DF93CF9300D000D0CDB7DEB76983BA
:102010007A838B839C8389819A81AB81BC81009771
:10202000A105B10521F480E090E0DC010EC00E9422
:102030006A30DC01CB0129813A814B815C81BC0192
:10204000CD010E94842EDC01CB01BC01CD010F909B
:102050000F900F900F90CF91DF910895EF92FF9224
:102060000F931F93DF93CF93CDB7DEB72C970FB6A7
:10207000F894DEBF0FBECDBF6D837E838F839887BC
:1020800029873A874B875C872D813E814F81588510
:1020900089859A85AB85BC85281739074A075B0770
:1020A0002CF08D819E81AF81B88526C029853A8527
:1020B0004B855C858D819E81AF81B88579018A01D0
:1020C000E81AF90A0A0B1B0BD801C70189839A8306
:1020D000AB83BC8389819A81AB81BC81BC01CD017A
:1020E0000E9401109B01AC018D819E81AF81B8855A
:1020F000820F931FA41FB51FBC01CD012C960FB6F4
:10210000F894DEBF0FBECDBFCF91DF911F910F912D
:10211000FF90EF900895AF92BF92CF92DF92EF922F
:10212000FF920F931F93DF93CF93CDB7DEB76097E6
:102130000FB6F894DEBF0FBECDBF69837A838B8361
:102140009C832D833E834F835887E986FA860B87CD
:102150001C87AD86BE86CF86D88A29813A814B817D
:102160005C818D819E81AF81B88559016A01A81A71
:10217000B90ACA0ADB0AD601C501ED8CFE8C0F8DA7
:1021800018A12D853E854F85588957016801A21AEF
:10219000B30AC40AD50AA6019501BC01CD010E946B
:1021A000302EDC01CB01E984FA840B851C852D815E
:1021B0003E814F81588557016801A21AB30AC40AAB
:1021C000D50AA6019501BC01CD010E94842E8D8502
:1021D0009E85AF85B889820F931FA41FB51FBC01D0
:1021E000CD0160960FB6F894DEBF0FBECDBFCF9184
:1021F000DF911F910F91FF90EF90DF90CF90BF90F4
:10220000AF900895DF93CF9300D0CDB7DEB79A8318
:10221000898389819A810F900F90CF91DF910895E2
:10222000DF93CF9300D0CDB7DEB789836A838981EE
:10223000882F90E0382F22278A81882F90E0822BE8
:10224000932B0F900F90CF91DF910895DF93CF9351
:1022500000D000D0CDB7DEB79A8389837C836B83AF
:1022600089819A810E9494128B819C81009769F0E8
:102270008B819C810E94CC319C0189819A814B8108
:102280005C81BA01A9010E945B130F900F900F901F
:102290000F90CF91DF910895DF93CF9300D000D0BE
:1022A000CDB7DEB79A8389837C836B8389819A81DA
:1022B0000E94941289819A812B813C81B9010E94EC
:1022C00099130F900F900F900F90CF91DF91089579
:1022D000DF93CF9300D000D00F92CDB7DEB79C83B1
:1022E0008B836D838B819C810E9494128D81898365
:1022F0001A828B819C819E012F5F3F4FB9010E9402
:10230000D2130F900F900F900F900F90CF91DF91FD
:102310000895DF93CF93CDB7DEB72D970FB6F8941E
:10232000DEBF0FBECDBF9B878A876C874D878A85AE
:102330009B850E9494128C85882F90E02D85222FFA
:1023400030E0AE014F5F5F4FBA01A9010E94A63293
:102350008A859B859E012F5F3F4FB9010E94D21352
:102360002D960FB6F894DEBF0FBECDBFCF91DF9193
:102370000895DF93CF93CDB7DEB767970FB6F89484
:10238000DEBF0FBECDBF9C8B8B8B7E8B6D8B4F8B3F
:102390008B899C890E9494128F89282F30E08D8927
:1023A0009E89AE014F5F5F4FBA01A9010E941732AB
:1023B0008B899C899E012F5F3F4FB9010E94D213E8
:1023C00067960FB6F894DEBF0FBECDBFCF91DF91F9
:1023D0000895DF93CF93CDB7DEB766970FB6F89425
:1023E000DEBF0FBECDBF9B8B8A8B7D8B6C8B4E8BE4
:1023F0008A899B890E9494128E89282F30E08C89CB
:102400009D89AE014F5F5F4FBA01A9010E94A632BC
:102410008A899B899E012F5F3F4FB9010E94D21389
:1024200066960FB6F894DEBF0FBECDBFCF91DF9199
:102430000895DF93CF93CDB7DEB7A9970FB6F89481
:10244000DEBF0FBECDBF9CA38BA34DA35EA36FA326
:1024500078A729A78BA19CA10E94941289A5282F57
:1024600030E08DA19EA1AFA1B8A5BC01CD01AE0108
:102470004F5F5F4F0E9438328BA19CA19E012F5F5E
:102480003F4FB9010E94D213A9960FB6F894DEBF50
:102490000FBECDBFCF91DF910895DF93CF93CDB71E
:1024A000DEB7A8970FB6F894DEBF0FBECDBF9BA3D3
:1024B0008AA34CA35DA36EA37FA328A78AA19BA197
:1024C0000E94941288A5282F30E08CA19DA1AEA176
:1024D000BFA1BC01CD01AE014F5F5F4F0E948132B1
:1024E0008AA19BA19E012F5F3F4FB9010E94D21389
:1024F000A8960FB6F894DEBF0FBECDBFCF91DF9187
:102500000895DF93CF9300D0CDB7DEB79A83898348
:1025100089819A81FC01808191810E948A2F0F908C
:102520000F90CF91DF910895DF93CF9300D0CDB777
:10253000DEB79A83898389819A81FC011182108296
:1025400089819A81FC011382128289819A81FC011E
:102550001582148289819A81FC0116820F900F9056
:10256000CF91DF910895DF93CF9300D0CDB7DEB741
:102570009A83898389819A81FC0180819181009766
:1025800039F089819A81FC01808191810E948A2F92
:1025900089819A81FC011182108289819A81FC01D2
:1025A0001582148289819A81FC0124813581898177
:1025B0009A81FC01338322830F900F90CF91DF919A
:1025C0000895DF93CF9300D000D0CDB7DEB79A83C4
:1025D00089837C836B8389819A81FC0180819181CD
:1025E000009761F089819A81FC01228133818B817E
:1025F0009C812817390710F081E01FC089819A81DA
:102600002B813C81B9010E942413982F81E09923EA
:1026100009F480E0882381F089819A81FC0184811A
:102620009581009739F489819A81FC01808191819B
:10263000FC01108281E001C080E00F900F900F90AC
:102640000F90CF91DF910895DF93CF9300D000D00A
:1026500000D0CDB7DEB79C838B837E836D838B8167
:102660009C81FC01808191812D813E812F5F3F4FB4
:10267000B9010E9478309A83898389819A81009771
:1026800081F08B819C8129813A81FC0131832083F7
:102690008B819C812D813E81FC013383228381E0EB
:1026A00001C080E026960FB6F894DEBF0FBECDBF06
:1026B000CF91DF910895DF93CF9300D000D000D069
:1026C000CDB7DEB79A8389837C836B835E834D832A
:1026D00089819A812D813E81B9010E94E112982F52
:1026E00081E0992309F080E0882339F089819A817B
:1026F0000E94B31289819A8113C089819A812D81A8
:102700003E81FC013583248389819A81FC0180818B
:1027100091812B813C81B9010E94C53189819A81C7
:1027200026960FB6F894DEBF0FBECDBFCF91DF91D6
:102730000895DF93CF9300D000D0CDB7DEB79A8352
:1027400089837C836B8329813A818B819C812817C3
:10275000390719F489819A811EC08B819C81FC0103
:1027600080819181009789F08B819C81FC0140815F
:1027700051818B819C81FC012481358189819A81E1
:10278000BA01A9010E945B1304C089819A810E9449
:10279000B31289819A810F900F900F900F90CF9173
:1027A000DF910895DF93CF9300D000D0CDB7DEB78F
:1027B0009A8389837C836B838B819C81009771F0E2
:1027C0008B819C810E94CC319C0189819A814B81B3
:1027D0005C81BA01A9010E945B1304C089819A81BE
:1027E0000E94B31289819A810F900F900F900F90E1
:1027F000CF91DF910895DF93CF9300D000D0CDB774
:10280000DEB79A8389837C836B838B819C81FC01F7
:10281000408151818B819C81FC012481358189819A
:102820009A81BA01A9010E941C140F900F900F9079
:102830000F90CF91DF910895DF93CF93CDB7DEB79F
:1028400028970FB6F894DEBF0FBECDBF9C838B8355
:102850007E836D8358874F838B819C81FC0124810B
:1028600035818F819885820F931F9A8389838D810B
:102870009E81009711F480E02FC08F81988500978A
:1028800011F481E029C08B819C8129813A81B901B1
:102890000E94E112982F81E0992309F080E08823BB
:1028A00011F080E019C08B819C81FC012081318175
:1028B0008B819C81FC0184819581820F931F2D81E6
:1028C0003E81B9010E94C5318B819C8129813A8169
:1028D000FC013583248381E028960FB6F894DEBF8F
:1028E0000FBECDBFCF91DF910895DF93CF9300D07E
:1028F00000D0CDB7DEB79A8389837C836B838B81CD
:102900009C81009711F480E00DC08B819C810E9416
:10291000CC319C0189819A814B815C81BA01A901EA
:102920000E941C140F900F900F900F90CF91DF9189
:102930000895DF93CF9300D000D00F92CDB7DEB7CC
:102940009C838B836D838D8189831A828B819C818B
:102950009E012F5F3F4FB90141E050E00E941C14DF
:102960000F900F900F900F900F90CF91DF910895DF
:10297000DF93CF93CDB7DEB727970FB6F894DEBFBE
:102980000FBECDBF9E838D836F838F81882F90E094
:102990009E012F5F3F4FB9014AE050E00E9417327D
:1029A000CE0101960E94CC319C018D819E81AE01A9
:1029B0004F5F5F4FBA01A9010E941C1427960FB602
:1029C000F894DEBF0FBECDBFCF91DF910895DF93A6
:1029D000CF93CDB7DEB72B970FB6F894DEBF0FBEFF
:1029E000CDBF998788877B876A878A859B859E016B
:1029F0002F5F3F4FB9014AE050E00E941732CE01ED
:102A000001960E94CC319C0188859985AE014F5F6B
:102A10005F4FBA01A9010E941C142B960FB6F894BF
:102A2000DEBF0FBECDBFCF91DF910895DF93CF936F
:102A3000CDB7DEB72A970FB6F894DEBF0FBECDBF75
:102A400098878F837A87698789859A859E012F5F0A
:102A50003F4FB9014AE050E00E94A632CE010196F4
:102A60000E94CC319C018F819885AE014F5F5F4FF2
:102A7000BA01A9010E941C142A960FB6F894DEBF71
:102A80000FBECDBFCF91DF910895DF93CF93CDB728
:102A9000DEB762970FB6F894DEBF0FBECDBF9E873C
:102AA0008D874F87588B698B7A8B8F859889A989F9
:102AB000BA89BC01CD019E012F5F3F4FA9012AE0D9
:102AC00030E00E943832CE0101960E94CC319C0148
:102AD0008D859E85AE014F5F5F4FBA01A9010E94AF
:102AE0001C1462960FB6F894DEBF0FBECDBFCF9117
:102AF000DF910895DF93CF93CDB7DEB761970FB61F
:102B0000F894DEBF0FBECDBF9D878C874E875F8751
:102B1000688B798B8E859F85A889B989BC01CD0189
:102B20009E012F5F3F4FA9012AE030E00E948132D1
:102B3000CE0101960E94CC319C018C859D85AE0111
:102B40004F5F5F4FBA01A9010E941C1461960FB636
:102B5000F894DEBF0FBECDBFCF91DF910895DF9314
:102B6000CF9300D000D000D0CDB7DEB79C838B834D
:102B70007E836D838B819C819A83898389819A81ED
:102B80002D813E81F901408151812D813E81F901E4
:102B900024813581BA01A9010E941C14982F81E07B
:102BA000992309F080E0882321F089819A810E948D
:102BB000B31289819A8126960FB6F894DEBF0FBEB4
:102BC000CDBFCF91DF9108950F931F93DF93CF93E4
:102BD00000D000D000D0CDB7DEB79C838B837E833E
:102BE0006D838B819C819A8389838D819E810097DF
:102BF00081F009811A818D819E810E94CC319C01D6
:102C00004D815E81C801BA01A9010E941C1488236C
:102C100011F481E001C080E0882321F089819A814C
:102C20000E94B31289819A8126960FB6F894DEBF6E
:102C30000FBECDBFCF91DF911F910F910895DF930C
:102C4000CF9300D000D00F92CDB7DEB79C838B839B
:102C50006D838B819C819A83898389819A816D811F
:102C60000E949914982F81E0992309F080E088232D
:102C700021F089819A810E94B31289819A810F90F3
:102C80000F900F900F900F90CF91DF910895DF93E9
:102C9000CF9300D000D00F92CDB7DEB79C838B834B
:102CA0006D838B819C819A83898389819A816D81CF
:102CB0000E94B814982F81E0992309F080E08823BE
:102CC00021F089819A810E94B31289819A810F90A3
:102CD0000F900F900F900F90CF91DF910895DF9399
:102CE000CF9300D000D000D0CDB7DEB79C838B83CC
:102CF0007E836D838B819C819A83898389819A816C
:102D00002D813E81B9010E94E714982F81E099231B
:102D100009F080E0882321F089819A810E94B31212
:102D200089819A8126960FB6F894DEBF0FBECDBF7B
:102D3000CF91DF910895DF93CF9300D000D000D0E2
:102D4000CDB7DEB79C838B837E836D838B819C8123
:102D50009A83898389819A812D813E81B9010E945C
:102D60001615982F81E0992309F080E0882321F03F
:102D700089819A810E94B31289819A8126960FB621
:102D8000F894DEBF0FBECDBFCF91DF910895DF93E2
:102D9000CF93CDB7DEB728970FB6F894DEBF0FBE3E
:102DA000CDBF9C838B834D835E836F8378878B81BC
:102DB0009C819A83898389819A812D813E814F816B
:102DC0005885BA01A9010E944515982F81E09923E1
:102DD00009F080E0882321F089819A810E94B31252
:102DE00089819A8128960FB6F894DEBF0FBECDBFB9
:102DF000CF91DF910895DF93CF93CDB7DEB72897BA
:102E00000FB6F894DEBF0FBECDBF9C838B834D837E
:102E10005E836F8378878B819C819A838983898184
:102E20009A812D813E814F815885BA01A9010E9466
:102E30007A15982F81E0992309F080E0882321F00A
:102E400089819A810E94B31289819A8128960FB64E
:102E5000F894DEBF0FBECDBFCF91DF910895DF9311
:102E6000CF9300D000D0CDB7DEB79A8389837C831F
:102E70006B8389819A81FC0180819181009739F06F
:102E80008B819C81FC01808191810097B1F58B81C0
:102E90009C81FC01808191810097A1F08B819C81B4
:102EA000FC0184819581009769F08B819C81FC01F4
:102EB00080819181FC018081882F90E0909581959F
:102EC0009F4F28C089819A81FC0180819181009760
:102ED00089F089819A81FC0184819581009751F064
:102EE00089819A81FC0180819181FC018081882FF8
:102EF00090E010C080E090E00DC089819A81FC01D3
:102F0000808191812B813C81F90120813181B9013E
:102F10000E94BC310F900F900F900F90CF91DF91D6
:102F20000895DF93CF9300D000D0CDB7DEB79A835A
:102F300089837C836B8389819A81FC01248135811B
:102F40008B819C81FC01848195812817390759F474
:102F500089819A812B813C81B9010E942F170097AA
:102F600011F481E001C080E00F900F900F900F905E
:102F7000CF91DF910895DF93CF9300D000D0CDB7EC
:102F8000DEB79A8389837C836B8389819A81FC0174
:102F900084819581009771F48B819C81009731F039
:102FA0008B819C81FC018081882311F481E001C028
:102FB00080E020C08B819C81009761F489819A8197
:102FC000FC0180819181FC01908181E0992391F045
:102FD00080E010C089819A81FC01808191812B81E0
:102FE0003C81B9010E94BC319C0181E02115310571
:102FF00009F080E00F900F900F900F90CF91DF912C
:103000000895DF93CF9300D000D0CDB7DEB79A8379
:1030100089837C836B8389819A812B813C81B9016F
:103020000E942F17892F881F8827881F0F900F90C5
:103030000F900F90CF91DF910895DF93CF9300D041
:1030400000D0CDB7DEB79A8389837C836B83898177
:103050009A812B813C81B9010E942F1721E018161B
:1030600019060CF020E0822F0F900F900F900F9018
:10307000CF91DF910895DF93CF9300D000D0CDB7EB
:10308000DEB79A8389837C836B8389819A812B81C4
:103090003C81B9010E942F1721E0181619060CF483
:1030A00020E0822F0F900F900F900F90CF91DF9123
:1030B0000895DF93CF9300D000D0CDB7DEB79A83C9
:1030C00089837C836B8389819A812B813C81B901BF
:1030D0000E942F17892F8095881F8827881F0F909F
:1030E0000F900F900F90CF91DF9108950F931F9342
:1030F000DF93CF93CDB7DEB728970FB6F894DEBF36
:103100000FBECDBF9E838D8378876F832D813E81D7
:103110008F8198852817390711F481E05AC08D8175
:103120009E81FC01248135818F819885FC018481F9
:1031300095812817390711F080E04BC08D819E8161
:10314000FC0184819581009711F481E042C08D815A
:103150009E81FC01808191819A8389838F819885EA
:10316000FC01808191819C838B8328C089819A8115
:10317000FC018081992787FD909529813A812F5FF5
:103180003F4F3A8329830E9472318C018B819C814D
:10319000FC018081992787FD90952B813C812F5FD1
:1031A0003F4F3C832B830E94723121E0081719079F
:1031B00009F420E0222311F080E00BC089819A817C
:1031C000FC01908181E0992309F480E0882371F665
:1031D00081E028960FB6F894DEBF0FBECDBFCF9129
:1031E000DF911F910F910895DF93CF9300D000D00E
:1031F000CDB7DEB79A8389837C836B8389819A817B
:10320000FC01248135818B819C81FC018481958125
:103210002817390710F480E009C089819A812B8131
:103220003C81B90140E050E00E941D190F900F90C1
:103230000F900F90CF91DF910895DF93CF9300D03F
:1032400000D000D0CDB7DEB79A8389837C836B83AF
:103250005E834D8389819A81FC01248135818B8134
:103260009C81FC0184819581281B390B8D819E8175
:103270002817390770F089819A81FC01808191813A
:10328000009739F08B819C81FC01808191810097AE
:1032900011F420E01BC089819A81FC0120813181D9
:1032A0008D819E81820F931F2B813C81F90140818A
:1032B00051812B813C81F90124813581BA01A90119
:1032C0000E94D53121E0009709F020E0822F269658
:1032D0000FB6F894DEBF0FBECDBFCF91DF9108953A
:1032E000DF93CF9300D000D0CDB7DEB79A83898328
:1032F0007C836B8389819A81FC01248135818B8158
:103300009C81FC01848195812817390770F089819F
:103310009A81FC0180819181009739F08B819C8199
:10332000FC0180819181009711F420E021C0898106
:103330009A81FC012081318189819A81FC0144813B
:1033400055818B819C81FC0184819581BA01681B28
:10335000790BCB01820F931F2B813C81F9012081D6
:103360003181B9010E94BC3121E0009709F020E0D1
:10337000822F0F900F900F900F90CF91DF910895B3
:10338000DF93CF9300D000D0CDB7DEB79A83898387
:103390007C836B8389819A812B813C81B9010E9456
:1033A000321A0F900F900F900F90CF91DF910895E8
:1033B000DF93CF9300D000D00F92CDB7DEB79A83C2
:1033C00089837C836B834D8389819A81FC0124816D
:1033D00035818B819C818217930760F489819A8162
:1033E000FC01208131818B819C81820F931F2D8173
:1033F000FC0120830F900F900F900F900F90CF91B2
:10340000DF910895DF93CF9300D000D0CDB7DEB722
:103410009A8389837C836B8389819A81FC012481CF
:1034200035818B819C818217930738F489819A8139
:10343000FC0180819181009729F41092FD028DEFAB
:1034400092E009C089819A81FC01208131818B81C0
:103450009C81820F931F0F900F900F900F90CF9130
:10346000DF910895DF93CF9300D000D0CDB7DEB7C2
:103470009A8389837C836B8389819A81FC0124816F
:1034800035818B819C818217930738F489819A81D9
:10349000FC0180819181009711F480E00BC089814B
:1034A0009A81FC01208131818B819C81820F931F45
:1034B000FC0180810F900F900F900F90CF91DF91C2
:1034C0000895DF93CF93CDB7DEB72A970FB6F89460
:1034D000DEBF0FBECDBF9C838B837E836D835887F9
:1034E0004F833A8729878F819885009709F44EC0CA
:1034F0008D819E81009709F44BC08B819C81FC01DA
:103500002481358189859A858217930728F08D81DA
:103510009E81FC0110823DC08F81988501979A831E
:1035200089838B819C81FC012481358189859A85E1
:10353000281B390B89819A812817390768F48B81F8
:103540009C81FC012481358189859A85A901481BCC
:10355000590BCA019A8389838D819E812B813C817D
:10356000F9014081518129853A85420F531F2981F4
:103570003A81BA01A9010E94E3312D813E818981FE
:103580009A81820F931FFC01108203C0000001C0CA
:1035900000002A960FB6F894DEBF0FBECDBFCF91C4
:1035A000DF910895DF93CF9300D00F92CDB7DEB7B0
:1035B0009A8389836B8389819A816B8140E050E093
:1035C0000E94E81A0F900F900F90CF91DF9108950D
:1035D000DF93CF93CDB7DEB727970FB6F894DEBF52
:1035E0000FBECDBF9C838B836D835F834E838B81A6
:1035F0009C81FC01248135818E819F8182179307F4
:1036000018F08FEF9FEF24C08B819C81FC012081FB
:1036100031818E819F81820F931F2D81332727FD5A
:103620003095B9010E94B1319A83898389819A8149
:10363000009719F48FEF9FEF0BC029813A818B819E
:103640009C81FC0180819181A901481B590BCA0111
:1036500027960FB6F894DEBF0FBECDBFCF91DF9196
:103660000895DF93CF9300D000D0CDB7DEB79A8313
:1036700089837C836B8389819A812B813C81B90109
:1036800040E050E00E944B1B0F900F900F900F9066
:10369000CF91DF910895DF93CF93CDB7DEB7289711
:1036A0000FB6F894DEBF0FBECDBF9C838B837E83A5
:1036B0006D8358874F838B819C81FC0124813581E8
:1036C0008F8198858217930718F08FEF9FEF25C0A1
:1036D0008B819C81FC01208131818F819885820FB3
:1036E000931F2D813E81F90120813181B9010E9412
:1036F000FD319A83898389819A81009719F48FEF2C
:103700009FEF0BC029813A818B819C81FC018081D4
:103710009181A901481B590BCA0128960FB6F8944C
:10372000DEBF0FBECDBFCF91DF910895DF93CF9362
:1037300000D00F92CDB7DEB79A8389836B838981DE
:103740009A81FC01848195819C01215030408981BE
:103750009A816B81A9010E94B31B0F900F900F906B
:10376000CF91DF910895DF93CF93CDB7DEB7289740
:103770000FB6F894DEBF0FBECDBF9D838C836E83E2
:1037800058874F838C819D81FC01248135818F81F5
:1037900098858217930718F08FEF9FEF46C08C81B2
:1037A0009D81FC01208131818F8198850196820F56
:1037B000931FFC01808189838C819D81FC01208184
:1037C00031818F8198850196820F931FFC011082B1
:1037D0008C819D81FC01808191812E81332727FD81
:1037E0003095B9010E94F2319B838A838C819D813F
:1037F000FC01208131818F8198850196820F931F72
:103800002981FC0120838A819B81009719F48FEF25
:103810009FEF0BC02A813B818C819D81FC018081BF
:103820009181A901481B590BCA0128960FB6F8943B
:10383000DEBF0FBECDBFCF91DF910895DF93CF9351
:1038400000D000D0CDB7DEB79A8389837C836B83A9
:1038500089819A81FC01248135818B819C81FC01C5
:1038600084819581281B390B89819A814B815C81E8
:10387000BA01A9010E94431C0F900F900F900F9066
:10388000CF91DF910895DF93CF93CDB7DEB72A971D
:103890000FB6F894DEBF0FBECDBF9E838D837887B1
:1038A0006F835A8749878F819885FC018481958130
:1038B0000097A1F08D819E81FC0184819581009704
:1038C00069F08F819885FC01248135818D819E81ED
:1038D000FC01848195818217930718F48FEF9FEF85
:1038E00068C08D819E81FC012481358189859A85FE
:1038F0008217930740F08D819E81FC018481958120
:1039000001979A8789878FEF9FEF9A8389838D81AB
:103910009E81FC01808191819C838B8333C08F8148
:103920009885FC01208131818B819C81B9010E94A5
:10393000FD319C838B838B819C810097B9F12B8116
:103940003C818D819E81FC0180819181A901481B70
:10395000590BCA019C0189859A858217930768F0E3
:103960002B813C818D819E81FC0180819181A90107
:10397000481B590BCA019A8389838B819C810196CC
:103980009C838B838D819E81FC012081318189857F
:103990009A85280F391F41E08B819C8128173907B0
:1039A00008F440E0442309F0BACF01C00000898147
:1039B0009A812A960FB6F894DEBF0FBECDBFCF9185
:1039C000DF9108950F931F93DF93CF9300D000D022
:1039D000CDB7DEB78C017A8369835C834B83C801E2
:1039E00029813A81F9012481358169817A814B816C
:1039F0005C810E94061DC801C8010F900F900F90B6
:103A00000F90CF91DF911F910F9108950F931F9306
:103A1000DF93CF93CDB7DEB760970FB6F894DEBFD4
:103A20000FBECDBF8C017C876B875E874D87388B3F
:103A30002F872D853E858F8598898217930760F49F
:103A40008F8598899A8389838D859E85988B8F87AA
:103A500089819A819E878D87C80120E031E0B90174
:103A60000E9426118B859C85FC01248135818D85E2
:103A70009E852817390708F442C08B859C85FC0178
:103A8000248135818F8598892817390738F48B85EB
:103A90009C85FC0184819581988B8F878B859C8583
:103AA000FC01208131818F859889820F931FFC0151
:103AB00080818B838B859C85FC01208131818F8562
:103AC0009889820F931FFC011082C8012B853C85C9
:103AD000F901408151812D853E85240F351FB901A3
:103AE0000E94D2138B859C85FC01208131818F85BA
:103AF0009889820F931F2B81FC01208301C0000055
:103B0000C801C80160960FB6F894DEBF0FBECDBFE6
:103B1000CF91DF911F910F910895DF93CF9300D044
:103B200000D000D0CDB7DEB79C838B836D834E83EE
:103B30008B819C81FC0180819181009721F18B8197
:103B40009C81FC01808191819A83898311C0898144
:103B50009A81FC0190818D81981729F489819A813D
:103B60002E81FC01208389819A8101969A83898321
:103B700089819A81FC01908181E0992309F480E098
:103B8000882329F701C0000026960FB6F894DEBFFF
:103B90000FBECDBFCF91DF910895DF93CF93CDB707
:103BA000DEB764970FB6F894DEBF0FBECDBF988B1B
:103BB0008F877A8B698B5C8B4B8B8F859889FC0107
:103BC00084819581009709F4AEC189899A89FC01A5
:103BD00084819581009709F4A8C18B899C89FC0197
:103BE0002481358189899A89FC0184819581A90183
:103BF000481B590BCA019A8789878F859889FC01D0
:103C0000808191819A83898389859A85009789F536
:103C10001BC08B899C89FC01408151818B899C89C7
:103C2000FC01248135818B859C85BA01A9010E9404
:103C30008F318B899C89FC01848195812B853C8502
:103C4000820F931F9A83898389899A89FC01208135
:103C5000318189819A81B9010E94FD319C878B87CE
:103C600021E08B859C85009709F420E0222389F6CA
:103C700061C189859A8599230CF075C08F859889D3
:103C8000FC01808191819C838B8350C02B853C8576
:103C900089819A81A901481B590BCA019E878D878A
:103CA0008B819C8149815A812D853E85BA01A9016C
:103CB0000E948F312B813C818D859E85820F931FC1
:103CC0009C838B838B899C89FC01408151818B89EA
:103CD0009C89FC01248135818B819C81BA01A901D9
:103CE0000E948F318B899C89FC01848195812B8175
:103CF0003C81820F931F9C838B8389899A89FC0165
:103D0000848195812B853C85820F931F9A838983BB
:103D10008F859889FC012481358189859A85280FB2
:103D2000391F8F859889FC013583248389899A8975
:103D3000FC012081318189819A81B9010E94FD3184
:103D40009C878B8721E08B859C85009709F420E078
:103D5000222309F09BCF8B819C8129813A81B90173
:103D60000E94C531E7C08F859889FC0184819581C7
:103D70009E838D8313C089899A89FC0184819581F2
:103D80002B853C85820F931F9A83898389859A8529
:103D90002D813E81820F931F9E838D8389899A890D
:103DA000FC012081318189819A81B9010E94FD3114
:103DB0009C878B8721E08B859C85009709F420E008
:103DC0002223C9F68F859889FC01248135818D8154
:103DD0009E812817390709F4AAC08F859889FC01AC
:103DE000228133818D819E812817390758F48F8570
:103DF00098892D813E81B9010E942413882311F4F2
:103E000081E001C080E0882309F093C08F85988904
:103E1000FC0184819581019798878F8369C08F8584
:103E20009889FC012081318189899A89FC0144812A
:103E300055818F819885840F951F820F931F9A83D8
:103E4000898389859A8529813A81820F931F2F85DD
:103E50003889F901448155812F853889F9012081FC
:103E60003181B90129813A81FB01E21BF30B9F01EA
:103E7000240F351F49815A81BA01A9010E94983146
:103E80008F859889FC012481358189859A85280F41
:103E9000391F8F859889FC01358324838F85988904
:103EA000FC01208131818F859889FC018481958175
:103EB000820F931FFC0110828F859889FC0120815D
:103EC00031818F819885820F931F2B893C89F9015D
:103ED000408151812B893C89F90124813581BA01C6
:103EE000A9010E948F318F819885019798878F83D0
:103EF0008F819885992394F02F8138858F859889B3
:103F000049895A89BA01A9010E94431C98878F8365
:103F10008F819885992314F081E001C080E0882387
:103F200009F07DCF07C0000005C0000003C00000FD
:103F300001C0000064960FB6F894DEBF0FBECDBF7F
:103F4000CF91DF910895DF93CF9300D000D0CDB70C
:103F5000DEB79C838B838B819C81FC018081918166
:103F6000009731F18B819C81FC01808191819A8342
:103F7000898313C089819A81FC018081992787FDFB
:103F800090950E947231282F89819A81FC012083AB
:103F900089819A8101969A83898389819A81FC011A
:103FA000908181E0992309F480E0882319F701C00A
:103FB00000000F900F900F900F90CF91DF91089518
:103FC000DF93CF9300D000D0CDB7DEB79C838B8337
:103FD0008B819C81FC0180819181009731F18B81E3
:103FE0009C81FC01808191819A83898313C089819E
:103FF0009A81FC018081992787FD90950E947A31F2
:10400000282F89819A81FC01208389819A810196D8
:104010009A83898389819A81FC01908181E0992327
:1040200009F480E0882319F701C000000F900F9079
:104030000F900F90CF91DF910895DF93CF9300D031
:1040400000D000D0CDB7DEB79E838D838D819E8159
:10405000FC0180819181009709F489C08D819E8146
:10406000FC0184819581009709F483C08D819E8134
:10407000FC01808191819A83898305C089819A811D
:1040800001969A83898389819A81FC01808199278D
:1040900087FD90950E946A3121E0009709F420E0A5
:1040A000222361F78D819E81FC01208131818D81E8
:1040B0009E81FC01848195810197820F931F9C83CF
:1040C0008B8305C08B819C8101979C838B838B8123
:1040D0009C81FC018081992787FD90950E946A311F
:1040E000009749F02B813C8189819A8128173907F3
:1040F00010F081E001C080E0882321F78B819C8152
:1041000001969C0189819A81A901481B590BCA011A
:104110009C018D819E81FC01358324838D819E814C
:10412000FC012081318189819A812817390780F427
:104130008D819E81FC01808191812D813E81F901DB
:104140002481358149815A81BA01A9010E948F31A8
:104150008D819E81FC01208131818D819E81FC01B8
:1041600084819581820F931FFC01108203C000009F
:1041700001C0000026960FB6F894DEBF0FBECDBF7B
:10418000CF91DF910895DF93CF9300D0CDB7DEB705
:104190009A83898389819A81FC018081918100972A
:1041A00051F089819A81FC01808191810E94433183
:1041B000DC01CB0103C080E090E0DC01BC01CD015B
:1041C0000F900F90CF91DF910895DF93CF9300D0A0
:1041D000CDB7DEB79A83898389819A81FC01848176
:1041E00095810F900F90CF91DF910895EF92FF92FC
:1041F0000F931F93DF93CF9300D000D0CDB7DEB7DE
:104200009A8389837C836B8389819A81FC01808175
:1042100091810296FC0100811181EB80FC808B81F1
:104220009C810E94CC319C0189819A81B701A901AE
:10423000F80109950F900F900F900F90CF91DF919B
:104240001F910F91FF90EF900895DF93CF93CDB71B
:10425000DEB728970FB6F894DEBF0FBECDBF9C83A4
:104260008B837E836D8358874F831A8219821CC08B
:104270008B819C81FC0180819181FC0120813181B5
:104280008D819E81FC0140818D819E8101969E835E
:104290008D838B819C81642FF901099529813A8155
:1042A000820F931F9A83898321E08F8198850097DD
:1042B00009F420E08F819885019798878F832223C6
:1042C000B9F689819A8128960FB6F894DEBF0FBEA1
:1042D000CDBFCF91DF9108951F93DF93CF93CDB7DB
:1042E000DEB72C970FB6F894DEBF0FBECDBF9A870E
:1042F00089877C876B878B859C859A8389831C82C1
:104300001B8289819A819E838D8389819A810196FE
:104310009A8389838D819E81FC0114911F838F81F3
:1043200088878885882361F48B819C812C960FB6C1
:10433000F894DEBF0FBECDBFCF91DF911F910895DE
:1043400089859A85FC0180819181FC0120813181E0
:1043500089859A856885F90109952B813C81820FB1
:10436000931F9C838B83CDCF0F931F93DF93CF93AA
:10437000CDB7DEB728970FB6F894DEBF0FBECDBF1E
:104380009E838D8378876F831A8219821C821B8299
:1043900020C08D819E81FC0180819181FC01008182
:1043A00011818F8198852B813C81B9010E94321A3D
:1043B000282F8D819E81622FF801099529813A81EC
:1043C000820F931F9A8389838B819C8101969C83A2
:1043D0008B838F8198850E94E5209C0141E08B8131
:1043E0009C818217930708F040E0442391F689816D
:1043F0009A8128960FB6F894DEBF0FBECDBFCF913D
:10440000DF911F910F910895DF93CF9300D000D0DB
:10441000CDB7DEB79A8389837C836B8389819A8148
:104420002B813C81B9010E94F6200F900F900F90D4
:104430000F90CF91DF910895DF93CF9300D00F922B
:10444000CDB7DEB79A8389836B8389819A81FC011A
:1044500080819181FC01208131814B8189819A8108
:10446000642FF90109950F900F900F90CF91DF9174
:104470000895DF93CF9300D000D00F92CDB7DEB771
:104480009A8389836B835D834C838B81282F30E0F3
:1044900040E050E089819A81EC81FD81BA01A90157
:1044A0009F010E941D230F900F900F900F900F906F
:1044B000CF91DF910895DF93CF9300D000D000D04B
:1044C000CDB7DEB79A8389837C836B835E834D830C
:1044D0008B819C819C01442737FD4095542F898115
:1044E0009A81ED81FE81BA01A9019F010E94A52256
:1044F00026960FB6F894DEBF0FBECDBFCF91DF91E9
:104500000895DF93CF9300D000D000D0CDB7DEB7B1
:104510009A8389837C836B835E834D838B819C81AB
:104520009C0140E050E089819A81ED81FE81BA01D1
:10453000A9019F010E941D2326960FB6F894DEBFA5
:104540000FBECDBFCF91DF910895DF93CF93CDB74D
:10455000DEB72A970FB6F894DEBF0FBECDBF9C839F
:104560008B834D835E836F8378873A87298789851C
:104570009A85009779F48B819C81FC0180819181DF
:10458000FC01208131814D818B819C81642FF90157
:1045900009954AC089859A858A309105C9F58D812A
:1045A0009E81AF81B885BB233CF58B819C816DE2F8
:1045B0000E941C229A8389838D819E81AF81B88558
:1045C000B095A095909581959F4FAF4FBF4F8D832C
:1045D0009E83AF83B8872D813E814F8158858B8123
:1045E0009C81BA01A9012AE00E94BC259C01898115
:1045F0009A81820F931F18C02D813E814F8158856B
:104600008B819C81BA01A9012AE00E94BC250CC0C3
:104610002D813E814F815885E9858B819C81BA012E
:10462000A9012E2F0E94BC252A960FB6F894DEBF52
:104630000FBECDBFCF91DF910895DF93CF93CDB75C
:10464000DEB728970FB6F894DEBF0FBECDBF9A83B2
:1046500089834B835C836D837E8338872F838F812F
:104660009885009779F489819A81FC0180819181F4
:10467000FC01208131814B8189819A81642FF9016C
:1046800009950CC0EF8189819A812B813C814D81F4
:104690005E81BA01A9012E2F0E94BC2528960FB673
:1046A000F894DEBF0FBECDBFCF91DF910895DF93A9
:1046B000CF93CDB7DEB728970FB6F894DEBF0FBE05
:1046C000CDBF9A8389834B835C836D837E833887D8
:1046D0002F83EF8189819A812B813C814D815E817D
:1046E000BA01A9012E2F0E942E2628960FB6F89403
:1046F000DEBF0FBECDBFCF91DF910895DF93CF9383
:1047000000D000D000D0CDB7DEB79C838B837E83F2
:104710006D838B819C812D813E81B9010E946C212A
:104720009A8389838B819C810E94C72329813A8146
:10473000820F931F9A83898389819A8126960FB667
:10474000F894DEBF0FBECDBFCF91DF910895DF9308
:10475000CF9300D000D0CDB7DEB79A8389837C8316
:104760006B838B819C81FC0180819181FC01208184
:1047700031818B819C8149815A81BA01F901099566
:104780000F900F900F900F90CF91DF910895DF93CE
:10479000CF9300D000D0CDB7DEB79C838B838B81C5
:1047A0009C816DE00E941C229A8389838B819C816D
:1047B0006AE00E941C2229813A81820F931F9A830A
:1047C000898389819A810F900F900F900F90CF91DC
:1047D000DF910895DF93CF9300D000D000D0CDB704
:1047E000DEB79C838B837E836D838B819C812D813F
:1047F0003E81B9010E94B4219A8389838B819C8177
:104800000E94C72329813A81820F931F9A8389834B
:1048100089819A8126960FB6F894DEBF0FBECDBF70
:10482000CF91DF910895DF93CF9300D000D000D0D7
:10483000CDB7DEB79C838B837E836D838B819C8118
:104840002D813E81B9010E9404229A8389838B8144
:104850009C810E94C72329813A81820F931F9A83EA
:10486000898389819A8126960FB6F894DEBF0FBEA0
:10487000CDBFCF91DF910895DF93CF9300D000D0CB
:104880000F92CDB7DEB79C838B836D838B819C8128
:104890006D810E941C229A8389838B819C810E9456
:1048A000C72329813A81820F931F9A838983898143
:1048B0009A810F900F900F900F900F90CF91DF91F2
:1048C0000895DF93CF93CDB7DEB727970FB6F8944F
:1048D000DEBF0FBECDBF9C838B836D835F834E8312
:1048E0008B819C812E813F816D81A9010E9439229B
:1048F0009A8389838B819C810E94C72329813A8175
:10490000820F931F9A83898389819A8127960FB694
:10491000F894DEBF0FBECDBFCF91DF910895DF9336
:10492000CF93CDB7DEB728970FB6F894DEBF0FBE92
:10493000CDBF9C838B837E836D8358874F838B8110
:104940009C814D815E812F813885BA01A9010E9429
:104950005B229A8389838B819C810E94C723298152
:104960003A81820F931F9A83898389819A8128963D
:104970000FB6F894DEBF0FBECDBFCF91DF91089583
:10498000DF93CF93CDB7DEB728970FB6F894DEBF8D
:104990000FBECDBF9C838B837E836D8358874F83EF
:1049A0008B819C814D815E812F813885BA01A9015F
:1049B0000E9481229A8389838B819C810E94C723D4
:1049C00029813A81820F931F9A83898389819A81F1
:1049D00028960FB6F894DEBF0FBECDBFCF91DF9102
:1049E0000895DF93CF93CDB7DEB72A970FB6F8942B
:1049F000DEBF0FBECDBF9C838B834D835E836F83F1
:104A000078873A8729878B819C812D813E814F81D0
:104A10005885E985FA85BA01A9019F010E94A5225E
:104A20009A8389838B819C810E94C72329813A8143
:104A3000820F931F9A83898389819A812A960FB660
:104A4000F894DEBF0FBECDBFCF91DF910895DF9305
:104A5000CF93CDB7DEB72A970FB6F894DEBF0FBE5F
:104A6000CDBF9C838B834D835E836F8378873A872A
:104A700029878B819C812D813E814F815885E985D5
:104A8000FA85BA01A9019F010E941D239A83898397
:104A90008B819C810E94C72329813A81820F931FB9
:104AA0009A83898389819A812A960FB6F894DEBF0A
:104AB0000FBECDBFCF91DF910895DF93CF93CDB7D8
:104AC000DEB72A970FB6F894DEBF0FBECDBF9C832A
:104AD0008B834D835E836F8378873A8729878B81A9
:104AE0009C812D813E814F815885E985FA85BA01E7
:104AF000A9019F010E9457239A8389838B819C81FE
:104B00000E94C72329813A81820F931F9A83898348
:104B100089819A812A960FB6F894DEBF0FBECDBF69
:104B2000CF91DF910895DF93CF9300D000D000D0D4
:104B3000CDB7DEB79C838B837E836D838B819C8115
:104B40002D813E81B9010E94A7239A8389838B819D
:104B50009C810E94C72329813A81820F931F9A83E7
:104B6000898389819A8126960FB6F894DEBF0FBE9D
:104B7000CDBFCF91DF910895DF93CF93CDB7DEB74F
:104B8000AF970FB6F894DEBF0FBECDBF9AA789A727
:104B90004BA75CA76DA77EA72FA7CE01089680968E
:104BA0009A83898389819A81FC0110828FA5823042
:104BB00010F48AE08FA78BA59CA5ADA5BEA58B831D
:104BC0009C83AD83BE838FA5282F30E040E050E06A
:104BD0008BA59CA5ADA5BEA5BC01CD010E94622EF2
:104BE0002BA73CA74DA75EA79B812BA58FA5289F30
:104BF000802D1124F92FF81B8F2F8F8389819A81A3
:104C000001979A8389838F818A3024F48F81805D14
:104C1000282F03C08F81895C282F89819A81FC010C
:104C2000208321E08BA59CA5ADA5BEA50097A1057D
:104C3000B10509F420E0222309F0BDCF89A59AA58A
:104C400029813A81B9010E94F620AF960FB6F894F7
:104C5000DEBF0FBECDBFCF91DF9108951F93DF93CD
:104C6000CF93CDB7DEB768970FB6F894DEBF0FBE0F
:104C7000CDBF9B8B8A8B4C8B5D8B6E8B7F8B288FF4
:104C80001A82198211E06C897D898E899F8920E0C2
:104C900030E0A9010E94390488230CF010E01123B0
:104CA000A1F08A899B896DE20E941C2229813A81A8
:104CB000820F931F9A8389838C899D89AE89BF89CE
:104CC000B0588C8B9D8BAE8BBF8B80E090E0A0E0CA
:104CD000BFE38B839C83AD83BE831F8213C06B8134
:104CE0007C818D819E8120E030E040E251E40E9491
:104CF0005B03DC01CB018B839C83AD83BE838F81FF
:104D00008F5F8F8381E02F81988D291708F080E0D5
:104D1000882329F76C897D898E899F892B813C8125
:104D20004D815E810E940302DC01CB018C8B9D8B47
:104D3000AE8BBF8B6C897D898E899F890E948D0087
:104D4000DC01CB018C879D87AE87BF876C857D8515
:104D50008E859F850E941B059B01AC016C897D8916
:104D60008E899F890E943002DC01CB018887998758
:104D7000AA87BB878A899B892C853D854E855F855F
:104D8000BA01A9012AE030E00E941D2329813A815D
:104D9000820F931F9A838983888D882309F44FC0DB
:104DA0008A899B8921E031E0B9010E94042229818E
:104DB0003A81820F931F9A83898341C068857985E0
:104DC0008A859B8520E030E040E251E40E94610248
:104DD000DC01CB0188879987AA87BB87688579859D
:104DE0008A859B850E94C904DC01CB01998B888B45
:104DF0008A899B8928893989B9014AE050E00E9453
:104E00005B2229813A81820F931F9A838983888943
:104E10009989AA2797FDA095BA2FBC01CD010E94C0
:104E200069049B01AC01688579858A859B850E9410
:104E30003002DC01CB0188879987AA87BB8781E094
:104E4000988D992309F480E0988D9150988F88234C
:104E500009F0B4CF89819A8168960FB6F894DEBFC5
:104E60000FBECDBFCF91DF911F910895DF93CF93F8
:104E700000D0CDB7DEB79A83898389819A8122E9F0
:104E800032E0FC013183208389819A81FC01138205
:104E900012820F900F90CF91DF910895DF93CF93FF
:104EA00000D0CDB7DEB79A83898389819A810E9429
:104EB000362789819A8129EB32E0FC0131832083F6
:104EC00029813A8188EE93E0A0E0B0E0F901848383
:104ED0009583A683B7830F900F90CF91DF910895AC
:104EE000DF93CF9300D000D00F92CDB7DEB78B8386
:104EF0007D836C838C819D81805C9F4FFC018081D0
:104F0000918101968F7390709A8389838C819D81A2
:104F10008E5B9F4FFC012081318141E089819A8124
:104F20002817390709F440E04423B9F08C819D81AA
:104F3000805C9F4FFC01808191812C813D81820F9B
:104F4000931F2B81FC0120838C819D81805C9F4F6E
:104F500029813A81FC01318320830F900F900F90BB
:104F60000F900F90CF91DF910895DF93CF93CDB73E
:104F7000DEB7CF91DF9108951F920F920FB60F9277
:104F800011242F933F934F935F936F937F938F934E
:104F90009F93AF93BF93EF93FF93DF93CF930F92C2
:104FA000CDB7DEB786EC90E0FC01808189832EEFDF
:104FB00032E08981B9010E9470270F90CF91DF9173
:104FC000FF91EF91BF91AF919F918F917F916F91E1
:104FD0005F914F913F912F910F900FBE0F901F90B7
:104FE0001895DF93CF93CDB7DEB786E893E00E94A4
:104FF000AB2A21E0009709F420E0222311F00E945F
:10500000B527CF91DF9108951F920F920FB60F929F
:1050100011242F933F934F935F936F937F938F93BD
:105020009F93AF93BF93EF93FF93DF93CF930F9231
:10503000CDB7DEB720918203309183038091840342
:105040009091850341E02817390709F040E0442397
:1050500051F081EC90E021EC30E0F90120812F7DCE
:10506000FC0120831CC080918403909185038E5B9A
:105070009C4FFC01808189838091840390918503FA
:10508000019620E430E0B9010E944F2E90938503F1
:105090008093840386EC90E02981FC0120830F90AB
:1050A000CF91DF91FF91EF91BF91AF919F918F9140
:1050B0007F916F915F914F913F912F910F900FBE14
:1050C0000F901F9018958F92AF92BF92CF92DF9260
:1050D000EF92FF920F931F93DF93CF93CDB7DEB77D
:1050E00061970FB6F894DEBF0FBECDBF9A83898358
:1050F0007C836B835E834D8338872F831A87098770
:10510000FC86EB86DE86CD86B88AAF86898A898161
:105110009A810E944E2789819A8129EA32E0FC0116
:105120003183208389819A812B813C81FC013587E1
:10513000248789819A812D813E81FC0137872687CA
:1051400089819A812F813885FC01318B208B89815F
:105150009A8129853A85FC01338B228B89819A813A
:105160002B853C85FC01358B248B89819A812D858B
:105170003E85FC01378B268B89819A812F85388962
:10518000FC01318F208F89819A812989FC01228F2E
:1051900089819A812F8DFC01238F89819A8128A191
:1051A000FC01248F89819A8129A1FC01258F8981A5
:1051B0009A812AA1FC01268F61960FB6F894DEBF72
:1051C0000FBECDBFCF91DF911F910F91FF90EF9058
:1051D000DF90CF90BF90AF908F900895DF93CF93E3
:1051E000CDB7DEB729970FB6F894DEBF0FBECDBF9F
:1051F0009D838C834E835F836887798781E08B836F
:105200008E819F81A885B985803021EE920720E0AC
:10521000A20720E0B20709F41B828B81882361F189
:105220008C819D81FC01848995892C813D81F901C6
:10523000268D422F50E021E030E002C0220F331FC4
:105240004A95E2F7FC01208380E099E0ADE3B0E00D
:105250002E813F8148855985BC01CD010E94622E77
:10526000DA01C9010197A109B109B695A7959795EA
:1052700087959A8389831EC08C819D81FC018489D6
:105280009589FC01108280E894E8AEE1B0E02E81BF
:105290003F8148855985BC01CD010E94622EDA010B
:1052A000C9010197A109B109B695A7959795879569
:1052B0009A83898389819A81F0E180309F0728F061
:1052C0008B81882311F01B82A8CF8C819D81FC01EA
:1052D0008089918929813A81232F3327FC012083FA
:1052E0008C819D81FC01828993892981FC01208325
:1052F0008C819D81FC01868997892C813D81F901F2
:1053000026893789F9012081622F2C813D81F9019D
:10531000228D422F50E021E030E002C0220F331FE7
:105320004A95E2F7262BFC0120838C819D81FC01AC
:10533000868997892C813D81F90126893789F90170
:105340002081622F2C813D81F901238D422F50E075
:1053500021E030E002C0220F331F4A95E2F7262BEE
:10536000FC0120838C819D81FC01868997892C8199
:105370003D81F90126893789F9012081622F2C812D
:105380003D81F901248D422F50E021E030E002C040
:10539000220F331F4A95E2F7262BFC0120838C81D4
:1053A0009D81FC01868997892C813D81F90126899F
:1053B0003789F9012081622F2C813D81F901258DEA
:1053C000422F50E021E030E0042E02C0220F331FB4
:1053D0000A94E2F720952623FC01208329960FB634
:1053E000F894DEBF0FBECDBFCF91DF910895DF935C
:1053F000CF9300D0CDB7DEB79A83898389819A8114
:10540000FC0186859785805C9F4FFC01208131815E
:1054100089819A81FC01868597858E5B9F4FFC016F
:105420008081918141E02817390709F440E0442345
:1054300029F789819A81FC018689978929813A8196
:10544000F90126893789F9012081622F29813A8162
:10545000F901228D422F50E021E030E002C0220FFE
:10546000331F4A95E2F720952623FC01208389818A
:105470009A81FC018689978929813A81F9012689D7
:105480003789F9012081622F29813A81F901238D21
:10549000422F50E021E030E002C0220F331F4A9536
:1054A000E2F720952623FC01208389819A81FC0163
:1054B0008689978929813A81F90126893789F901F5
:1054C0002081622F29813A81F901248D422F50E0F9
:1054D00021E030E002C0220F331F4A95E2F7209509
:1054E0002623FC01208389819A81FC018689978982
:1054F00029813A81F90126893789F9012081622FB2
:1055000029813A81F901258D422F50E021E030E0D8
:10551000042E02C0220F331F0A94E2F7209526239F
:10552000FC01208389819A81FC01848595852981EC
:105530003A81F901248535852E5B3F4FF9012081A1
:105540003181805C9F4FFC01318320830F900F904D
:10555000CF91DF910895DF93CF9300D0CDB7DEB721
:105560009A83898389819A81FC0184859585805CF1
:105570009F4FFC01808191819C01205C3F4F89817C
:105580009A81FC01848595858E5B9F4FFC0180810B
:105590009181A901481B590BCA018F7390700F901C
:1055A0000F90CF91DF910895DF93CF9300D0CDB7C7
:1055B000DEB79A83898389819A81FC0184859585E8
:1055C000805C9F4FFC012081318189819A81FC019F
:1055D000848595858E5B9F4FFC018081918141E0A0
:1055E0002817390709F040E0442319F08FEF9FEFA7
:1055F00015C089819A81FC012485358589819A812C
:10560000FC01848595858E5B9F4FFC018081918193
:10561000820F931FFC018081882F90E00F900F90E4
:10562000CF91DF910895DF93CF9300D00F92CDB744
:10563000DEB79B838A838A819B81FC018485958563
:10564000805C9F4FFC01208131818A819B81FC011C
:10565000848595858E5B9F4FFC018081918141E01F
:105660002817390709F040E0442319F08FEF9FEF26
:105670002FC08A819B81FC01248535858A819B818D
:10568000FC01848595858E5B9F4FFC018081918113
:10569000820F931FFC01808189838A819B81FC0199
:1056A000848595852A813B81F901248535852E5B8A
:1056B0003F4FF901208131812F5F3F4F2F733070B1
:1056C0008E5B9F4FFC01318320838981882F90E07E
:1056D0000F900F900F90CF91DF910895DF93CF93AC
:1056E00000D0CDB7DEB79A83898389819A81FC0186
:1056F00086859785805C9F4FFC012081318189815F
:105700009A81FC01868597858E5B9F4FFC01808185
:10571000918141E02817390709F440E0442329F733
:105720000F900F90CF91DF910895DF93CF9300D02A
:1057300000D00F92CDB7DEB79C838B836D838B81B6
:105740009C81FC0186859785805C9F4FFC01808150
:105750009181019620E430E0B9010E944F2E9A8396
:1057600089838B819C81FC01868597858E5B9F4F09
:10577000FC012081318141E089819A812817390714
:1057800009F040E0442369F78B819C81FC01268568
:1057900037858B819C81FC0186859785805C9F4F36
:1057A000FC0180819181820F931F2D81FC01208358
:1057B0008B819C81FC0186859785805C9F4F298128
:1057C0003A81FC01318320838B819C81FC01868995
:1057D00097892B813C81F90126893789F90120813C
:1057E000622F2B813C81F901258D422F50E021E071
:1057F00030E0042E02C0220F331F0A94E2F7262B5A
:10580000FC01208381E090E00F900F900F900F90AB
:105810000F90CF91DF9108958F92AF92BF92CF9268
:10582000DF92EF92FF920F931F93DF93CF9300D0FD
:1058300000D0CDB7DEB79A8389837C836B8389815F
:105840009A818130910509F03FC08B819C812FEFB7
:105850008F3F9207C9F500D000D08DB79EB7019653
:1058600066E873E04EEF52E022E433E0E3E0DC016F
:10587000EC93E7E0DC011196EC93E5E0DC01129695
:10588000EC93E1E0DC011396EC93CB01BA01A901A2
:1058900025EC30E004EC10E00F2EF0ECEF2EFF24AE
:1058A000F02D0F2EF1ECCF2EDD24F02D0F2EF6EC87
:1058B000AF2EBB24F02D8824689482F80E946328C0
:1058C0000F900F900F900F900F900F900F900F90E0
:1058D000CF91DF911F910F91FF90EF90DF90CF90CC
:1058E000BF90AF908F900895DF93CF93CDB7DEB781
:1058F00081E090E06FEF7FEF0E940C2CCF91DF9161
:105900000895DF93CF9300D0CDB7DEB79A83898314
:1059100089819A812EED32E0FC01318320830F9042
:105920000F90CF91DF910895DF93CF9300D0CDB743
:10593000DEB79A83898389819A810E94812C89812B
:105940009A8128ED32E0FC013183208389819A819C
:10595000029660E070E044E050E00E94AA310F90AF
:105960000F90CF91DF9108950F93DF93CF9300D0E5
:1059700000D000D0CDB7DEB79A8389836B834C8388
:105980002D830E8389819A810E94812C89819A813D
:1059900028ED32E0FC013183208389819A812B81BB
:1059A000FC01228389819A812C81FC0123838981D6
:1059B0009A812D81FC01248389819A812E81FC01A9
:1059C000258326960FB6F894DEBF0FBECDBFCF91CC
:1059D000DF910F910895DF93CF9300D000D000D0D6
:1059E000CDB7DEB79A8389834B835C836D837E83D7
:1059F00089819A810E94812C89819A8128ED32E0E7
:105A0000FC013183208389819A8102969E012D5F5A
:105A10003F4FB90144E050E00E948F3126960FB607
:105A2000F894DEBF0FBECDBFCF91DF910895DF9315
:105A3000CF9300D000D0CDB7DEB79A8389837C8323
:105A40006B8389819A810E94812C89819A8128EDBA
:105A500032E0FC013183208389819A8102962B8177
:105A60003C81B90144E050E00E948F310F900F90CB
:105A70000F900F90CF91DF910895DF93CF9300D0D7
:105A800000D0CDB7DEB79A8389837C836B8389810D
:105A90009A8102962B813C81B90144E050E00E943A
:105AA0008F3189819A810F900F900F900F90CF9135
:105AB000DF910895DF93CF9300D000D000D0CDB711
:105AC000DEB79A8389834B835C836D837E83898170
:105AD0009A8102969E012D5F3F4FB90144E050E04C
